{
  "contractName": "ChangeOwnership",
  "abi": [
    {
      "inputs": [
        {
          "internalType": "address",
          "name": "prod_contract_addr",
          "type": "address"
        }
      ],
      "stateMutability": "nonpayable",
      "type": "constructor"
    },
    {
      "anonymous": false,
      "inputs": [
        {
          "indexed": true,
          "internalType": "bytes32",
          "name": "p",
          "type": "bytes32"
        },
        {
          "indexed": true,
          "internalType": "address",
          "name": "account",
          "type": "address"
        }
      ],
      "name": "TransferPartOwnership",
      "type": "event"
    },
    {
      "anonymous": false,
      "inputs": [
        {
          "indexed": true,
          "internalType": "bytes32",
          "name": "p",
          "type": "bytes32"
        },
        {
          "indexed": true,
          "internalType": "address",
          "name": "account",
          "type": "address"
        }
      ],
      "name": "TransferProductOwnership",
      "type": "event"
    },
    {
      "inputs": [
        {
          "internalType": "bytes32",
          "name": "",
          "type": "bytes32"
        }
      ],
      "name": "currentPartOwner",
      "outputs": [
        {
          "internalType": "address",
          "name": "",
          "type": "address"
        }
      ],
      "stateMutability": "view",
      "type": "function",
      "constant": true
    },
    {
      "inputs": [
        {
          "internalType": "bytes32",
          "name": "",
          "type": "bytes32"
        }
      ],
      "name": "currentProductOwner",
      "outputs": [
        {
          "internalType": "address",
          "name": "",
          "type": "address"
        }
      ],
      "stateMutability": "view",
      "type": "function",
      "constant": true
    },
    {
      "inputs": [
        {
          "internalType": "uint256",
          "name": "op_type",
          "type": "uint256"
        },
        {
          "internalType": "bytes32",
          "name": "p_hash",
          "type": "bytes32"
        }
      ],
      "name": "addOwnership",
      "outputs": [
        {
          "internalType": "bool",
          "name": "",
          "type": "bool"
        }
      ],
      "stateMutability": "nonpayable",
      "type": "function"
    },
    {
      "inputs": [
        {
          "internalType": "uint256",
          "name": "op_type",
          "type": "uint256"
        },
        {
          "internalType": "bytes32",
          "name": "p_hash",
          "type": "bytes32"
        },
        {
          "internalType": "address",
          "name": "to",
          "type": "address"
        }
      ],
      "name": "changeOwnership",
      "outputs": [
        {
          "internalType": "bool",
          "name": "",
          "type": "bool"
        }
      ],
      "stateMutability": "nonpayable",
      "type": "function"
    }
  ],
  "bytecode": "0x60806040523480156200001157600080fd5b5060405162001507380380620015078339818101604052810190620000379190620000e9565b80600260006101000a81548173ffffffffffffffffffffffffffffffffffffffff021916908373ffffffffffffffffffffffffffffffffffffffff160217905550506200011b565b600080fd5b600073ffffffffffffffffffffffffffffffffffffffff82169050919050565b6000620000b18262000084565b9050919050565b620000c381620000a4565b8114620000cf57600080fd5b50565b600081519050620000e381620000b8565b92915050565b6000602082840312156200010257620001016200007f565b5b60006200011284828501620000d2565b91505092915050565b6113dc806200012b6000396000f3fe608060405234801561001057600080fd5b506004361061004c5760003560e01c806379ab6eba146100515780637db5a2bc14610081578063ac814490146100b1578063f0fddc94146100e1575b600080fd5b61006b60048036038101906100669190610adc565b610111565b6040516100789190610b4a565b60405180910390f35b61009b60048036038101906100969190610b9b565b610144565b6040516100a89190610bf6565b60405180910390f35b6100cb60048036038101906100c69190610c3d565b61062b565b6040516100d89190610bf6565b60405180910390f35b6100fb60048036038101906100f69190610adc565b610a5f565b6040516101089190610b4a565b60405180910390f35b60006020528060005260406000206000915054906101000a900473ffffffffffffffffffffffffffffffffffffffff1681565b600080600181111561015957610158610c90565b5b83036103b6576000600260009054906101000a900473ffffffffffffffffffffffffffffffffffffffff1673ffffffffffffffffffffffffffffffffffffffff16638c431b9f846040518263ffffffff1660e01b81526004016101bc9190610cce565b600060405180830381865afa1580156101d9573d6000803e3d6000fd5b505050506040513d6000823e3d601f19601f820116820180604052508101906102029190610e68565b90915090505080915050600073ffffffffffffffffffffffffffffffffffffffff1660008085815260200190815260200160002060009054906101000a900473ffffffffffffffffffffffffffffffffffffffff1673ffffffffffffffffffffffffffffffffffffffff16146102ad576040517f08c379a00000000000000000000000000000000000000000000000000000000081526004016102a490610f80565b60405180910390fd5b3373ffffffffffffffffffffffffffffffffffffffff168173ffffffffffffffffffffffffffffffffffffffff161461031b576040517f08c379a000000000000000000000000000000000000000000000000000000000815260040161031290610fec565b60405180910390fd5b3360008085815260200190815260200160002060006101000a81548173ffffffffffffffffffffffffffffffffffffffff021916908373ffffffffffffffffffffffffffffffffffffffff1602179055503373ffffffffffffffffffffffffffffffffffffffff16837f6a67eae68bb9deea9cbb16299fce22702092dc03cbcfd6a7babc7ac0036c7d4b60405160405180910390a350610625565b6001808111156103c9576103c8610c90565b5b8303610624576000600260009054906101000a900473ffffffffffffffffffffffffffffffffffffffff1673ffffffffffffffffffffffffffffffffffffffff166379054391846040518263ffffffff1660e01b815260040161042c9190610cce565b600060405180830381865afa158015610449573d6000803e3d6000fd5b505050506040513d6000823e3d601f19601f820116820180604052508101906104729190610e68565b90915090505080915050600073ffffffffffffffffffffffffffffffffffffffff166001600085815260200190815260200160002060009054906101000a900473ffffffffffffffffffffffffffffffffffffffff1673ffffffffffffffffffffffffffffffffffffffff161461051e576040517f08c379a000000000000000000000000000000000000000000000000000000000815260040161051590611058565b60405180910390fd5b3373ffffffffffffffffffffffffffffffffffffffff168173ffffffffffffffffffffffffffffffffffffffff161461058c576040517f08c379a0000000000000000000000000000000000000000000000000000000008152600401610583906110ea565b60405180910390fd5b336001600085815260200190815260200160002060006101000a81548173ffffffffffffffffffffffffffffffffffffffff021916908373ffffffffffffffffffffffffffffffffffffffff1602179055503373ffffffffffffffffffffffffffffffffffffffff16837fe2d5b74efaa0dc370d71f08be6bc6c865613194b7345262a998fb5232622c0b260405160405180910390a3505b5b92915050565b60008060018111156106405761063f610c90565b5b8403610780573373ffffffffffffffffffffffffffffffffffffffff1660008085815260200190815260200160002060009054906101000a900473ffffffffffffffffffffffffffffffffffffffff1673ffffffffffffffffffffffffffffffffffffffff16146106e6576040517f08c379a00000000000000000000000000000000000000000000000000000000081526004016106dd90611156565b60405180910390fd5b8160008085815260200190815260200160002060006101000a81548173ffffffffffffffffffffffffffffffffffffffff021916908373ffffffffffffffffffffffffffffffffffffffff1602179055508173ffffffffffffffffffffffffffffffffffffffff16837f6a67eae68bb9deea9cbb16299fce22702092dc03cbcfd6a7babc7ac0036c7d4b60405160405180910390a3610a58565b60018081111561079357610792610c90565b5b8403610a57573373ffffffffffffffffffffffffffffffffffffffff166001600085815260200190815260200160002060009054906101000a900473ffffffffffffffffffffffffffffffffffffffff1673ffffffffffffffffffffffffffffffffffffffff161461083a576040517f08c379a0000000000000000000000000000000000000000000000000000000008152600401610831906111e8565b60405180910390fd5b816001600085815260200190815260200160002060006101000a81548173ffffffffffffffffffffffffffffffffffffffff021916908373ffffffffffffffffffffffffffffffffffffffff1602179055508173ffffffffffffffffffffffffffffffffffffffff16837fe2d5b74efaa0dc370d71f08be6bc6c865613194b7345262a998fb5232622c0b260405160405180910390a36000600260009054906101000a900473ffffffffffffffffffffffffffffffffffffffff1673ffffffffffffffffffffffffffffffffffffffff16636e730329856040518263ffffffff1660e01b815260040161092d9190610cce565b60c0604051808303816000875af115801561094c573d6000803e3d6000fd5b505050506040513d601f19601f8201168201806040525081019061097091906112d3565b905060005b6006811015610a54578360008084846006811061099557610994611300565b5b6020020151815260200190815260200160002060006101000a81548173ffffffffffffffffffffffffffffffffffffffff021916908373ffffffffffffffffffffffffffffffffffffffff1602179055508373ffffffffffffffffffffffffffffffffffffffff16828260068110610a1057610a0f611300565b5b60200201517f6a67eae68bb9deea9cbb16299fce22702092dc03cbcfd6a7babc7ac0036c7d4b60405160405180910390a38080610a4c9061135e565b915050610975565b50505b5b9392505050565b60016020528060005260406000206000915054906101000a900473ffffffffffffffffffffffffffffffffffffffff1681565b6000604051905090565b600080fd5b600080fd5b6000819050919050565b610ab981610aa6565b8114610ac457600080fd5b50565b600081359050610ad681610ab0565b92915050565b600060208284031215610af257610af1610a9c565b5b6000610b0084828501610ac7565b91505092915050565b600073ffffffffffffffffffffffffffffffffffffffff82169050919050565b6000610b3482610b09565b9050919050565b610b4481610b29565b82525050565b6000602082019050610b5f6000830184610b3b565b92915050565b6000819050919050565b610b7881610b65565b8114610b8357600080fd5b50565b600081359050610b9581610b6f565b92915050565b60008060408385031215610bb257610bb1610a9c565b5b6000610bc085828601610b86565b9250506020610bd185828601610ac7565b9150509250929050565b60008115159050919050565b610bf081610bdb565b82525050565b6000602082019050610c0b6000830184610be7565b92915050565b610c1a81610b29565b8114610c2557600080fd5b50565b600081359050610c3781610c11565b92915050565b600080600060608486031215610c5657610c55610a9c565b5b6000610c6486828701610b86565b9350506020610c7586828701610ac7565b9250506040610c8686828701610c28565b9150509250925092565b7f4e487b7100000000000000000000000000000000000000000000000000000000600052602160045260246000fd5b610cc881610aa6565b82525050565b6000602082019050610ce36000830184610cbf565b92915050565b600081519050610cf881610c11565b92915050565b600080fd5b600080fd5b6000601f19601f8301169050919050565b7f4e487b7100000000000000000000000000000000000000000000000000000000600052604160045260246000fd5b610d5182610d08565b810181811067ffffffffffffffff82111715610d7057610d6f610d19565b5b80604052505050565b6000610d83610a92565b9050610d8f8282610d48565b919050565b600067ffffffffffffffff821115610daf57610dae610d19565b5b610db882610d08565b9050602081019050919050565b60005b83811015610de3578082015181840152602081019050610dc8565b83811115610df2576000848401525b50505050565b6000610e0b610e0684610d94565b610d79565b905082815260208101848484011115610e2757610e26610d03565b5b610e32848285610dc5565b509392505050565b600082601f830112610e4f57610e4e610cfe565b5b8151610e5f848260208601610df8565b91505092915050565b60008060008060808587031215610e8257610e81610a9c565b5b6000610e9087828801610ce9565b945050602085015167ffffffffffffffff811115610eb157610eb0610aa1565b5b610ebd87828801610e3a565b935050604085015167ffffffffffffffff811115610ede57610edd610aa1565b5b610eea87828801610e3a565b925050606085015167ffffffffffffffff811115610f0b57610f0a610aa1565b5b610f1787828801610e3a565b91505092959194509250565b600082825260208201905092915050565b7f506172742077617320616c726561647920726567697374657265640000000000600082015250565b6000610f6a601b83610f23565b9150610f7582610f34565b602082019050919050565b60006020820190508181036000830152610f9981610f5d565b9050919050565b7f5061727420776173206e6f74206d616465206279207265717565737465720000600082015250565b6000610fd6601e83610f23565b9150610fe182610fa0565b602082019050919050565b6000602082019050818103600083015261100581610fc9565b9050919050565b7f50726f647563742077617320616c726561647920726567697374657265640000600082015250565b6000611042601e83610f23565b915061104d8261100c565b602082019050919050565b6000602082019050818103600083015261107181611035565b9050919050565b7f50726f6475637420776173206e6f74206d61646520627920726571756573746560008201527f7200000000000000000000000000000000000000000000000000000000000000602082015250565b60006110d4602183610f23565b91506110df82611078565b604082019050919050565b60006020820190508181036000830152611103816110c7565b9050919050565b7f50617274206973206e6f74206f776e6564206279207265717565737465720000600082015250565b6000611140601e83610f23565b915061114b8261110a565b602082019050919050565b6000602082019050818103600083015261116f81611133565b9050919050565b7f50726f64756374206973206e6f74206f776e656420627920726571756573746560008201527f7200000000000000000000000000000000000000000000000000000000000000602082015250565b60006111d2602183610f23565b91506111dd82611176565b604082019050919050565b60006020820190508181036000830152611201816111c5565b9050919050565b600067ffffffffffffffff82111561122357611222610d19565b5b602082029050919050565b600080fd5b60008151905061124281610ab0565b92915050565b600061125b61125684611208565b610d79565b905080602084028301858111156112755761127461122e565b5b835b8181101561129e578061128a8882611233565b845260208401935050602081019050611277565b5050509392505050565b600082601f8301126112bd576112bc610cfe565b5b60066112ca848285611248565b91505092915050565b600060c082840312156112e9576112e8610a9c565b5b60006112f7848285016112a8565b91505092915050565b7f4e487b7100000000000000000000000000000000000000000000000000000000600052603260045260246000fd5b7f4e487b7100000000000000000000000000000000000000000000000000000000600052601160045260246000fd5b600061136982610b65565b91507fffffffffffffffffffffffffffffffffffffffffffffffffffffffffffffffff820361139b5761139a61132f565b5b60018201905091905056fea2646970667358221220f1d417caecd9118c0cdd982872a1da9801d1254302f7ceaf832394350225737c64736f6c634300080d0033",
  "immutableReferences": {},
  "source": "// SPDX-License-Identifier: MIT\npragma solidity >=0.4.21 <0.8.21;\n\n//Add ProductManagement ABI to allow calls\ncontract ProductManagement{\n    struct Part{\n        address manufacturer;\n        string serial_number;\n        string part_type;\n        string creation_date;\n    }\n\n    struct Product{\n        address manufacturer;\n        string serial_number;\n        string product_type;\n        string creation_date;\n        bytes32[] parts;\n    }\n\n    mapping(bytes32 => Part) public parts;\n    mapping(bytes32 => Product) public products;\n\n    function getParts(bytes32 product_hash) public returns (bytes32[6] memory) {}\n}\n\ncontract ChangeOwnership {\n\n    enum OperationType {PART, PRODUCT}\n    mapping(bytes32 => address) public currentPartOwner;\n    mapping(bytes32 => address) public currentProductOwner;\n\n    event TransferPartOwnership(bytes32 indexed p, address indexed account);\n    event TransferProductOwnership(bytes32 indexed p, address indexed account);\n    ProductManagement private pm;\n\n    constructor(address prod_contract_addr) public {\n        //Just create a new auxiliary contract. We will use it to check if the part or product really exist\n        pm = ProductManagement(prod_contract_addr);\n    }\n\n    function addOwnership(uint op_type, bytes32 p_hash) public returns (bool) {\n        if(op_type == uint(OperationType.PART)){\n            address manufacturer;\n            (manufacturer, , , ) = pm.parts(p_hash);\n            require(currentPartOwner[p_hash] == address(0), \"Part was already registered\");\n            require(manufacturer == msg.sender, \"Part was not made by requester\");\n            currentPartOwner[p_hash] = msg.sender;\n            emit TransferPartOwnership(p_hash, msg.sender);\n        } else if (op_type == uint(OperationType.PRODUCT)){\n            address manufacturer;\n            (manufacturer, , , ) = pm.products(p_hash);\n            require(currentProductOwner[p_hash] == address(0), \"Product was already registered\");\n            require(manufacturer == msg.sender, \"Product was not made by requester\");\n            currentProductOwner[p_hash] = msg.sender;\n            emit TransferProductOwnership(p_hash, msg.sender);\n        }\n    }\n\n    function changeOwnership(uint op_type, bytes32 p_hash, address to) public returns (bool) {\n      //Check if the element exists and belongs to the user requesting ownership change\n        if(op_type == uint(OperationType.PART)){\n            require(currentPartOwner[p_hash] == msg.sender, \"Part is not owned by requester\");\n            currentPartOwner[p_hash] = to;\n            emit TransferPartOwnership(p_hash, to);\n        } else if (op_type == uint(OperationType.PRODUCT)){\n            require(currentProductOwner[p_hash] == msg.sender, \"Product is not owned by requester\");\n            currentProductOwner[p_hash] = to;\n            emit TransferProductOwnership(p_hash, to);\n            //Change part ownership too\n            bytes32[6] memory part_list = pm.getParts(p_hash);\n            for(uint i = 0; i < part_list.length; i++){\n                currentPartOwner[part_list[i]] = to;\n                emit TransferPartOwnership(part_list[i], to);\n            }\n\n        }\n    }\n}\n",
  "sourcePath": "/home/surajkumarprajapati/Desktop/AutoMotive_Supply_Chain/contracts/changeOwnerShip.sol",
  "compiler": {
    "name": "solc",
    "version": "0.8.13+commit.abaa5c0e.Emscripten.clang"
  },
  "schemaVersion": "3.4.7",
  "updatedAt": "2023-09-13T10:06:39.522Z",
  "networkType": "ethereum",
  "devdoc": {
    "kind": "dev",
    "methods": {},
    "version": 1
  },
  "userdoc": {
    "kind": "user",
    "methods": {},
    "version": 1
  }
}