{
  "contractName": "ProductManagement",
  "abi": [
    {
      "inputs": [],
      "stateMutability": "nonpayable",
      "type": "constructor"
    },
    {
      "inputs": [
        {
          "internalType": "bytes32",
          "name": "",
          "type": "bytes32"
        }
      ],
      "name": "parts",
      "outputs": [
        {
          "internalType": "address",
          "name": "manufacturer",
          "type": "address"
        },
        {
          "internalType": "string",
          "name": "serial_number",
          "type": "string"
        },
        {
          "internalType": "string",
          "name": "part_type",
          "type": "string"
        },
        {
          "internalType": "string",
          "name": "creation_date",
          "type": "string"
        }
      ],
      "stateMutability": "view",
      "type": "function",
      "constant": true
    },
    {
      "inputs": [
        {
          "internalType": "bytes32",
          "name": "",
          "type": "bytes32"
        }
      ],
      "name": "products",
      "outputs": [
        {
          "internalType": "address",
          "name": "manufacturer",
          "type": "address"
        },
        {
          "internalType": "string",
          "name": "serial_number",
          "type": "string"
        },
        {
          "internalType": "string",
          "name": "product_type",
          "type": "string"
        },
        {
          "internalType": "string",
          "name": "creation_date",
          "type": "string"
        }
      ],
      "stateMutability": "view",
      "type": "function",
      "constant": true
    },
    {
      "inputs": [
        {
          "internalType": "string",
          "name": "serial_number",
          "type": "string"
        },
        {
          "internalType": "string",
          "name": "part_type",
          "type": "string"
        },
        {
          "internalType": "string",
          "name": "creation_date",
          "type": "string"
        }
      ],
      "name": "buildPart",
      "outputs": [
        {
          "internalType": "bytes32",
          "name": "",
          "type": "bytes32"
        }
      ],
      "stateMutability": "nonpayable",
      "type": "function"
    },
    {
      "inputs": [
        {
          "internalType": "string",
          "name": "serial_number",
          "type": "string"
        },
        {
          "internalType": "string",
          "name": "product_type",
          "type": "string"
        },
        {
          "internalType": "string",
          "name": "creation_date",
          "type": "string"
        },
        {
          "internalType": "bytes32[6]",
          "name": "part_array",
          "type": "bytes32[6]"
        }
      ],
      "name": "buildProduct",
      "outputs": [
        {
          "internalType": "bytes32",
          "name": "",
          "type": "bytes32"
        }
      ],
      "stateMutability": "nonpayable",
      "type": "function"
    },
    {
      "inputs": [
        {
          "internalType": "bytes32",
          "name": "product_hash",
          "type": "bytes32"
        }
      ],
      "name": "getParts",
      "outputs": [
        {
          "internalType": "bytes32[6]",
          "name": "",
          "type": "bytes32[6]"
        }
      ],
      "stateMutability": "nonpayable",
      "type": "function"
    }
  ],
  "bytecode": "0x608060405234801561001057600080fd5b506117be806100206000396000f3fe608060405234801561001057600080fd5b50600436106100575760003560e01c80636e7303291461005c578063790543911461008c5780638c431b9f146100bf578063b9c2dc3a146100f2578063d2af2aec14610122575b600080fd5b61007660048036038101906100719190610ed3565b610152565b6040516100839190610fab565b60405180910390f35b6100a660048036038101906100a19190610ed3565b610258565b6040516100b694939291906110a0565b60405180910390f35b6100d960048036038101906100d49190610ed3565b610440565b6040516100e994939291906110a0565b60405180910390f35b61010c6004803603810190610107919061122f565b610628565b60405161011991906112e5565b60405180910390f35b61013c600480360381019061013791906113b6565b6107d8565b60405161014991906112e5565b60405180910390f35b61015a610d67565b600073ffffffffffffffffffffffffffffffffffffffff166001600084815260200190815260200160002060000160009054906101000a900473ffffffffffffffffffffffffffffffffffffffff1673ffffffffffffffffffffffffffffffffffffffff16036101ff576040517f08c379a00000000000000000000000000000000000000000000000000000000081526004016101f6906114be565b60405180910390fd5b6001600083815260200190815260200160002060040160068060200260405190810160405280929190826006801561024c576020028201915b815481526020019060010190808311610238575b50505050509050919050565b60016020528060005260406000206000915090508060000160009054906101000a900473ffffffffffffffffffffffffffffffffffffffff16908060010180546102a19061150d565b80601f01602080910402602001604051908101604052809291908181526020018280546102cd9061150d565b801561031a5780601f106102ef5761010080835404028352916020019161031a565b820191906000526020600020905b8154815290600101906020018083116102fd57829003601f168201915b50505050509080600201805461032f9061150d565b80601f016020809104026020016040519081016040528092919081815260200182805461035b9061150d565b80156103a85780601f1061037d576101008083540402835291602001916103a8565b820191906000526020600020905b81548152906001019060200180831161038b57829003601f168201915b5050505050908060030180546103bd9061150d565b80601f01602080910402602001604051908101604052809291908181526020018280546103e99061150d565b80156104365780601f1061040b57610100808354040283529160200191610436565b820191906000526020600020905b81548152906001019060200180831161041957829003601f168201915b5050505050905084565b60006020528060005260406000206000915090508060000160009054906101000a900473ffffffffffffffffffffffffffffffffffffffff16908060010180546104899061150d565b80601f01602080910402602001604051908101604052809291908181526020018280546104b59061150d565b80156105025780601f106104d757610100808354040283529160200191610502565b820191906000526020600020905b8154815290600101906020018083116104e557829003601f168201915b5050505050908060020180546105179061150d565b80601f01602080910402602001604051908101604052809291908181526020018280546105439061150d565b80156105905780601f1061056557610100808354040283529160200191610590565b820191906000526020600020905b81548152906001019060200180831161057357829003601f168201915b5050505050908060030180546105a59061150d565b80601f01602080910402602001604051908101604052809291908181526020018280546105d19061150d565b801561061e5780601f106105f35761010080835404028352916020019161061e565b820191906000526020600020905b81548152906001019060200180831161060157829003601f168201915b5050505050905084565b60008061063733868686610a88565b9050600073ffffffffffffffffffffffffffffffffffffffff1660008083815260200190815260200160002060000160009054906101000a900473ffffffffffffffffffffffffffffffffffffffff1673ffffffffffffffffffffffffffffffffffffffff16146106dd576040517f08c379a00000000000000000000000000000000000000000000000000000000081526004016106d49061158a565b60405180910390fd5b600060405180608001604052803373ffffffffffffffffffffffffffffffffffffffff1681526020018781526020018681526020018581525090508060008084815260200190815260200160002060008201518160000160006101000a81548173ffffffffffffffffffffffffffffffffffffffff021916908373ffffffffffffffffffffffffffffffffffffffff160217905550602082015181600101908051906020019061078e929190610d89565b5060408201518160020190805190602001906107ab929190610d89565b5060608201518160030190805190602001906107c8929190610d89565b5090505081925050509392505050565b600080600090505b60068110156108b757600073ffffffffffffffffffffffffffffffffffffffff16600080858460068110610817576108166115aa565b5b6020020151815260200190815260200160002060000160009054906101000a900473ffffffffffffffffffffffffffffffffffffffff1673ffffffffffffffffffffffffffffffffffffffff16036108a4576040517f08c379a000000000000000000000000000000000000000000000000000000000815260040161089b90611625565b60405180910390fd5b80806108af9061167e565b9150506107e0565b60006108c533888888610a88565b9050600073ffffffffffffffffffffffffffffffffffffffff166001600083815260200190815260200160002060000160009054906101000a900473ffffffffffffffffffffffffffffffffffffffff1673ffffffffffffffffffffffffffffffffffffffff161461096c576040517f08c379a000000000000000000000000000000000000000000000000000000000815260040161096390611712565b60405180910390fd5b60006040518060a001604052803373ffffffffffffffffffffffffffffffffffffffff168152602001898152602001888152602001878152602001868152509050806001600084815260200190815260200160002060008201518160000160006101000a81548173ffffffffffffffffffffffffffffffffffffffff021916908373ffffffffffffffffffffffffffffffffffffffff1602179055506020820151816001019080519060200190610a24929190610d89565b506040820151816002019080519060200190610a41929190610d89565b506060820151816003019080519060200190610a5e929190610d89565b50608082015181600401906006610a76929190610e0f565b50905050819350505050949350505050565b6000808560601b90506000859050600085905060008590506000815183518551601460ff16610ab79190611732565b610ac19190611732565b610acb9190611732565b67ffffffffffffffff811115610ae457610ae3611104565b5b6040519080825280601f01601f191660200182016040528015610b165781602001600182028036833780820191505090505b50905060008190506000805b601460ff16811015610ba657878160148110610b4157610b406115aa565b5b1a60f81b838380610b519061167e565b945081518110610b6457610b636115aa565b5b60200101907effffffffffffffffffffffffffffffffffffffffffffffffffffffffffffff1916908160001a9053508080610b9e9061167e565b915050610b22565b600090505b8651811015610c3357868181518110610bc757610bc66115aa565b5b602001015160f81c60f81b838380610bde9061167e565b945081518110610bf157610bf06115aa565b5b60200101907effffffffffffffffffffffffffffffffffffffffffffffffffffffffffffff1916908160001a9053508080610c2b9061167e565b915050610bab565b600090505b8551811015610cc057858181518110610c5457610c536115aa565b5b602001015160f81c60f81b838380610c6b9061167e565b945081518110610c7e57610c7d6115aa565b5b60200101907effffffffffffffffffffffffffffffffffffffffffffffffffffffffffffff1916908160001a9053508080610cb89061167e565b915050610c38565b600090505b8451811015610d4d57848181518110610ce157610ce06115aa565b5b602001015160f81c60f81b838380610cf89061167e565b945081518110610d0b57610d0a6115aa565b5b60200101907effffffffffffffffffffffffffffffffffffffffffffffffffffffffffffff1916908160001a9053508080610d459061167e565b915050610cc5565b828051906020012098505050505050505050949350505050565b6040518060c00160405280600690602082028036833780820191505090505090565b828054610d959061150d565b90600052602060002090601f016020900481019282610db75760008555610dfe565b82601f10610dd057805160ff1916838001178555610dfe565b82800160010185558215610dfe579182015b82811115610dfd578251825591602001919060010190610de2565b5b509050610e0b9190610e4f565b5090565b8260068101928215610e3e579160200282015b82811115610e3d578251825591602001919060010190610e22565b5b509050610e4b9190610e6c565b5090565b5b80821115610e68576000816000905550600101610e50565b5090565b5b80821115610e85576000816000905550600101610e6d565b5090565b6000604051905090565b600080fd5b600080fd5b6000819050919050565b610eb081610e9d565b8114610ebb57600080fd5b50565b600081359050610ecd81610ea7565b92915050565b600060208284031215610ee957610ee8610e93565b5b6000610ef784828501610ebe565b91505092915050565b600060069050919050565b600081905092915050565b6000819050919050565b610f2981610e9d565b82525050565b6000610f3b8383610f20565b60208301905092915050565b6000602082019050919050565b610f5d81610f00565b610f678184610f0b565b9250610f7282610f16565b8060005b83811015610fa3578151610f8a8782610f2f565b9650610f9583610f47565b925050600181019050610f76565b505050505050565b600060c082019050610fc06000830184610f54565b92915050565b600073ffffffffffffffffffffffffffffffffffffffff82169050919050565b6000610ff182610fc6565b9050919050565b61100181610fe6565b82525050565b600081519050919050565b600082825260208201905092915050565b60005b83811015611041578082015181840152602081019050611026565b83811115611050576000848401525b50505050565b6000601f19601f8301169050919050565b600061107282611007565b61107c8185611012565b935061108c818560208601611023565b61109581611056565b840191505092915050565b60006080820190506110b56000830187610ff8565b81810360208301526110c78186611067565b905081810360408301526110db8185611067565b905081810360608301526110ef8184611067565b905095945050505050565b600080fd5b600080fd5b7f4e487b7100000000000000000000000000000000000000000000000000000000600052604160045260246000fd5b61113c82611056565b810181811067ffffffffffffffff8211171561115b5761115a611104565b5b80604052505050565b600061116e610e89565b905061117a8282611133565b919050565b600067ffffffffffffffff82111561119a57611199611104565b5b6111a382611056565b9050602081019050919050565b82818337600083830152505050565b60006111d26111cd8461117f565b611164565b9050828152602081018484840111156111ee576111ed6110ff565b5b6111f98482856111b0565b509392505050565b600082601f830112611216576112156110fa565b5b81356112268482602086016111bf565b91505092915050565b60008060006060848603121561124857611247610e93565b5b600084013567ffffffffffffffff81111561126657611265610e98565b5b61127286828701611201565b935050602084013567ffffffffffffffff81111561129357611292610e98565b5b61129f86828701611201565b925050604084013567ffffffffffffffff8111156112c0576112bf610e98565b5b6112cc86828701611201565b9150509250925092565b6112df81610e9d565b82525050565b60006020820190506112fa60008301846112d6565b92915050565b600067ffffffffffffffff82111561131b5761131a611104565b5b602082029050919050565b600080fd5b600061133e61133984611300565b611164565b9050806020840283018581111561135857611357611326565b5b835b81811015611381578061136d8882610ebe565b84526020840193505060208101905061135a565b5050509392505050565b600082601f8301126113a05761139f6110fa565b5b60066113ad84828561132b565b91505092915050565b60008060008061012085870312156113d1576113d0610e93565b5b600085013567ffffffffffffffff8111156113ef576113ee610e98565b5b6113fb87828801611201565b945050602085013567ffffffffffffffff81111561141c5761141b610e98565b5b61142887828801611201565b935050604085013567ffffffffffffffff81111561144957611448610e98565b5b61145587828801611201565b92505060606114668782880161138b565b91505092959194509250565b7f50726f6475637420696e6578697374656e740000000000000000000000000000600082015250565b60006114a8601283611012565b91506114b382611472565b602082019050919050565b600060208201905081810360008301526114d78161149b565b9050919050565b7f4e487b7100000000000000000000000000000000000000000000000000000000600052602260045260246000fd5b6000600282049050600182168061152557607f821691505b602082108103611538576115376114de565b5b50919050565b7f5061727420494420616c72656164792075736564000000000000000000000000600082015250565b6000611574601483611012565b915061157f8261153e565b602082019050919050565b600060208201905081810360008301526115a381611567565b9050919050565b7f4e487b7100000000000000000000000000000000000000000000000000000000600052603260045260246000fd5b7f496e6578697374656e7420706172742075736564206f6e2070726f6475637400600082015250565b600061160f601f83611012565b915061161a826115d9565b602082019050919050565b6000602082019050818103600083015261163e81611602565b9050919050565b7f4e487b7100000000000000000000000000000000000000000000000000000000600052601160045260246000fd5b6000819050919050565b600061168982611674565b91507fffffffffffffffffffffffffffffffffffffffffffffffffffffffffffffffff82036116bb576116ba611645565b5b600182019050919050565b7f50726f6475637420494420616c72656164792075736564000000000000000000600082015250565b60006116fc601783611012565b9150611707826116c6565b602082019050919050565b6000602082019050818103600083015261172b816116ef565b9050919050565b600061173d82611674565b915061174883611674565b9250827fffffffffffffffffffffffffffffffffffffffffffffffffffffffffffffffff0382111561177d5761177c611645565b5b82820190509291505056fea26469706673582212206b8b86267e2d7c7d970c1f24d9bc10f655c7274c05f7a866c432989f6410f6f264736f6c634300080d0033",
  "immutableReferences": {},
  "source": "// SPDX-License-Identifier: MIT\npragma solidity >=0.4.21 <0.8.21;\n\ncontract ProductManagement {\n    struct Part{\n        address manufacturer;\n        string serial_number;\n        string part_type;\n        string creation_date;\n    }\n\n    struct Product{\n        address manufacturer;\n        string serial_number;\n        string product_type;\n        string creation_date;\n        bytes32[6] parts;\n    }\n\n    mapping(bytes32 => Part) public parts;\n    mapping(bytes32 => Product) public products;\n\n    constructor() public {\n    }\n\n    function concatenateInfoAndHash(address a1, string memory s1, string memory s2, string memory s3) private returns (bytes32){\n        //First, get all values as bytes\n        bytes20 b_a1 = bytes20(a1);\n        bytes memory b_s1 = bytes(s1);\n        bytes memory b_s2 = bytes(s2);\n        bytes memory b_s3 = bytes(s3);\n\n        //Then calculate and reserve a space for the full string\n        string memory s_full = new string(b_a1.length + b_s1.length + b_s2.length + b_s3.length);\n        bytes memory b_full = bytes(s_full);\n        uint j = 0;\n        uint i;\n        for(i = 0; i < b_a1.length; i++){\n            b_full[j++] = b_a1[i];\n        }\n        for(i = 0; i < b_s1.length; i++){\n            b_full[j++] = b_s1[i];\n        }\n        for(i = 0; i < b_s2.length; i++){\n            b_full[j++] = b_s2[i];\n        }\n        for(i = 0; i < b_s3.length; i++){\n            b_full[j++] = b_s3[i];\n        }\n\n        //Hash the result and return\n        return keccak256(b_full);\n    }\n\n    function buildPart(string memory serial_number, string memory part_type, string memory creation_date) public returns (bytes32){\n        //Create hash for data and check if it exists. If it doesn't, create the part and return the ID to the user\n        bytes32 part_hash = concatenateInfoAndHash(msg.sender, serial_number, part_type, creation_date);\n        \n        require(parts[part_hash].manufacturer == address(0), \"Part ID already used\");\n\n        Part memory new_part = Part(msg.sender, serial_number, part_type, creation_date);\n        parts[part_hash] = new_part;\n        return part_hash;\n    }\n\n    function buildProduct(string memory serial_number, string memory product_type, string memory creation_date, bytes32[6] memory part_array) public returns (bytes32){\n        //Check if all the parts exist, hash values and add to product mapping.\n        uint i;\n        for(i = 0;i < part_array.length; i++){\n            require(parts[part_array[i]].manufacturer != address(0), \"Inexistent part used on product\");\n        }\n\n        //Create hash for data and check if exists. If it doesn't, create the part and return the ID to the user\n        bytes32 product_hash = concatenateInfoAndHash(msg.sender, serial_number, product_type, creation_date);\n        \n        require(products[product_hash].manufacturer == address(0), \"Product ID already used\");\n\n        Product memory new_product = Product(msg.sender, serial_number, product_type, creation_date, part_array);\n        products[product_hash] = new_product;\n        return product_hash;\n    }\n\n    function getParts(bytes32 product_hash) public returns (bytes32[6] memory){\n        //The automatic getter does not return arrays, so lets create a function for that\n        require(products[product_hash].manufacturer != address(0), \"Product inexistent\");\n        return products[product_hash].parts;\n    }\n}\n",
  "sourcePath": "/home/surajkumarprajapati/Desktop/AutoMotive_Supply_Chain/contracts/productManagement.sol",
  "compiler": {
    "name": "solc",
    "version": "0.8.13+commit.abaa5c0e.Emscripten.clang"
  },
  "schemaVersion": "3.4.7",
  "updatedAt": "2023-09-13T10:06:39.512Z",
  "networkType": "ethereum",
  "devdoc": {
    "kind": "dev",
    "methods": {},
    "version": 1
  },
  "userdoc": {
    "kind": "user",
    "methods": {},
    "version": 1
  }
}